{
  "_format": "hh-sol-artifact-1",
  "contractName": "MilestoneFunding",
  "sourceName": "contracts/MilestoneFunding.sol",
  "abi": [
    {
      "inputs": [],
      "stateMutability": "nonpayable",
      "type": "constructor"
    },
    {
      "anonymous": false,
      "inputs": [
        {
          "indexed": true,
          "internalType": "uint256",
          "name": "projectId",
          "type": "uint256"
        },
        {
          "indexed": true,
          "internalType": "uint256",
          "name": "milestoneId",
          "type": "uint256"
        },
        {
          "indexed": false,
          "internalType": "address",
          "name": "resolver",
          "type": "address"
        }
      ],
      "name": "MilestoneResolved",
      "type": "event"
    },
    {
      "anonymous": false,
      "inputs": [
        {
          "indexed": true,
          "internalType": "uint256",
          "name": "projectId",
          "type": "uint256"
        },
        {
          "indexed": true,
          "internalType": "address",
          "name": "creator",
          "type": "address"
        },
        {
          "indexed": false,
          "internalType": "string",
          "name": "title",
          "type": "string"
        }
      ],
      "name": "ProjectCreated",
      "type": "event"
    },
    {
      "anonymous": false,
      "inputs": [
        {
          "indexed": true,
          "internalType": "uint256",
          "name": "projectId",
          "type": "uint256"
        },
        {
          "indexed": true,
          "internalType": "uint256",
          "name": "tagId",
          "type": "uint256"
        },
        {
          "indexed": false,
          "internalType": "string",
          "name": "tag",
          "type": "string"
        }
      ],
      "name": "TagAssigned",
      "type": "event"
    },
    {
      "anonymous": false,
      "inputs": [
        {
          "indexed": true,
          "internalType": "uint256",
          "name": "projectId",
          "type": "uint256"
        },
        {
          "indexed": true,
          "internalType": "address",
          "name": "from",
          "type": "address"
        },
        {
          "indexed": false,
          "internalType": "uint256",
          "name": "amount",
          "type": "uint256"
        },
        {
          "indexed": false,
          "internalType": "string",
          "name": "note",
          "type": "string"
        }
      ],
      "name": "TransactionCreated",
      "type": "event"
    },
    {
      "inputs": [
        {
          "internalType": "uint256",
          "name": "projectId",
          "type": "uint256"
        },
        {
          "internalType": "uint256",
          "name": "tagId",
          "type": "uint256"
        },
        {
          "internalType": "string",
          "name": "tag",
          "type": "string"
        }
      ],
      "name": "assignTag",
      "outputs": [],
      "stateMutability": "nonpayable",
      "type": "function"
    },
    {
      "inputs": [
        {
          "internalType": "uint256",
          "name": "projectId",
          "type": "uint256"
        },
        {
          "internalType": "string",
          "name": "note",
          "type": "string"
        }
      ],
      "name": "contribute",
      "outputs": [],
      "stateMutability": "payable",
      "type": "function"
    },
    {
      "inputs": [
        {
          "internalType": "string",
          "name": "title",
          "type": "string"
        }
      ],
      "name": "createProject",
      "outputs": [
        {
          "internalType": "uint256",
          "name": "",
          "type": "uint256"
        }
      ],
      "stateMutability": "nonpayable",
      "type": "function"
    },
    {
      "inputs": [],
      "name": "owner",
      "outputs": [
        {
          "internalType": "address",
          "name": "",
          "type": "address"
        }
      ],
      "stateMutability": "view",
      "type": "function"
    },
    {
      "inputs": [],
      "name": "projectCount",
      "outputs": [
        {
          "internalType": "uint256",
          "name": "",
          "type": "uint256"
        }
      ],
      "stateMutability": "view",
      "type": "function"
    },
    {
      "inputs": [
        {
          "internalType": "uint256",
          "name": "",
          "type": "uint256"
        }
      ],
      "name": "projects",
      "outputs": [
        {
          "internalType": "address",
          "name": "creator",
          "type": "address"
        },
        {
          "internalType": "string",
          "name": "title",
          "type": "string"
        },
        {
          "internalType": "uint256",
          "name": "balance",
          "type": "uint256"
        }
      ],
      "stateMutability": "view",
      "type": "function"
    },
    {
      "inputs": [
        {
          "internalType": "uint256",
          "name": "projectId",
          "type": "uint256"
        },
        {
          "internalType": "uint256",
          "name": "milestoneId",
          "type": "uint256"
        }
      ],
      "name": "resolveMilestone",
      "outputs": [],
      "stateMutability": "nonpayable",
      "type": "function"
    },
    {
      "inputs": [
        {
          "internalType": "uint256",
          "name": "projectId",
          "type": "uint256"
        }
      ],
      "name": "withdraw",
      "outputs": [],
      "stateMutability": "nonpayable",
      "type": "function"
    }
  ],
  "bytecode": "0x608060405234801561001057600080fd5b50336000806101000a81548173ffffffffffffffffffffffffffffffffffffffff021916908373ffffffffffffffffffffffffffffffffffffffff16021790555061122c806100606000396000f3fe60806040526004361061007b5760003560e01c806336fbad261161004e57806336fbad261461014e57806378791928146101795780638da5cb5b146101a2578063e7315f99146101cd5761007b565b8063107046bd1461008057806315ee4df1146100bf5780632e1a7d4d146100fc578063351a277b14610125575b600080fd5b34801561008c57600080fd5b506100a760048036038101906100a29190610891565b6101e9565b6040516100b69392919061099e565b60405180910390f35b3480156100cb57600080fd5b506100e660048036038101906100e19190610a41565b6102bb565b6040516100f39190610a8e565b60405180910390f35b34801561010857600080fd5b50610123600480360381019061011e9190610891565b610429565b005b34801561013157600080fd5b5061014c60048036038101906101479190610aa9565b610574565b005b34801561015a57600080fd5b5061016361063f565b6040516101709190610a8e565b60405180910390f35b34801561018557600080fd5b506101a0600480360381019061019b9190610ae9565b610645565b005b3480156101ae57600080fd5b506101b7610714565b6040516101c49190610b5d565b60405180910390f35b6101e760048036038101906101e29190610b78565b610738565b005b60026020528060005260406000206000915090508060000160009054906101000a900473ffffffffffffffffffffffffffffffffffffffff169080600101805461023290610c07565b80601f016020809104026020016040519081016040528092919081815260200182805461025e90610c07565b80156102ab5780601f10610280576101008083540402835291602001916102ab565b820191906000526020600020905b81548152906001019060200180831161028e57829003601f168201915b5050505050908060020154905083565b600060018060008282546102cf9190610c67565b9250508190555060405180606001604052803373ffffffffffffffffffffffffffffffffffffffff16815260200184848080601f016020809104026020016040519081016040528093929190818152602001838380828437600081840152601f19601f820116905080830192505050505050508152602001600081525060026000600154815260200190815260200160002060008201518160000160006101000a81548173ffffffffffffffffffffffffffffffffffffffff021916908373ffffffffffffffffffffffffffffffffffffffff16021790555060208201518160010190816103bd9190610e76565b50604082015181600201559050503373ffffffffffffffffffffffffffffffffffffffff166001547f9d9ec461f162f3f4fdb9f6d189bfe13c59e48d8acd23a4c3bfcf7cc0fe4e84ed8585604051610416929190610f84565b60405180910390a3600154905092915050565b60006002600083815260200190815260200160002090508060000160009054906101000a900473ffffffffffffffffffffffffffffffffffffffff1673ffffffffffffffffffffffffffffffffffffffff163373ffffffffffffffffffffffffffffffffffffffff16146104d2576040517f08c379a00000000000000000000000000000000000000000000000000000000081526004016104c990610ff4565b60405180910390fd5b6000816002015490506000811161051e576040517f08c379a000000000000000000000000000000000000000000000000000000000815260040161051590611060565b60405180910390fd5b600082600201819055503373ffffffffffffffffffffffffffffffffffffffff166108fc829081150290604051600060405180830381858888f1935050505015801561056e573d6000803e3d6000fd5b50505050565b60008054906101000a900473ffffffffffffffffffffffffffffffffffffffff1673ffffffffffffffffffffffffffffffffffffffff163373ffffffffffffffffffffffffffffffffffffffff1614610602576040517f08c379a00000000000000000000000000000000000000000000000000000000081526004016105f9906110cc565b60405180910390fd5b80827f55746b900acb44525999109640a9543b55a8d4608d4c873f993366e70aa0ebe2336040516106339190610b5d565b60405180910390a35050565b60015481565b60008054906101000a900473ffffffffffffffffffffffffffffffffffffffff1673ffffffffffffffffffffffffffffffffffffffff163373ffffffffffffffffffffffffffffffffffffffff16146106d3576040517f08c379a00000000000000000000000000000000000000000000000000000000081526004016106ca906110cc565b60405180910390fd5b82847f031c2c10e7ddec0b00bd055d8b6154f72854ff248e8e34cf1cacb1fc743448568484604051610706929190610f84565b60405180910390a350505050565b60008054906101000a900473ffffffffffffffffffffffffffffffffffffffff1681565b60008311801561074a57506001548311155b610789576040517f08c379a000000000000000000000000000000000000000000000000000000000815260040161078090611138565b60405180910390fd5b600034116107cc576040517f08c379a00000000000000000000000000000000000000000000000000000000081526004016107c3906111a4565b60405180910390fd5b346002600085815260200190815260200160002060020160008282546107f29190610c67565b925050819055503373ffffffffffffffffffffffffffffffffffffffff16837fb3e109c4e0cc337f6da39a6e8bf88fae2a4474b59b7ab0382a7d597abcb2f904348585604051610844939291906111c4565b60405180910390a3505050565b600080fd5b600080fd5b6000819050919050565b61086e8161085b565b811461087957600080fd5b50565b60008135905061088b81610865565b92915050565b6000602082840312156108a7576108a6610851565b5b60006108b58482850161087c565b91505092915050565b600073ffffffffffffffffffffffffffffffffffffffff82169050919050565b60006108e9826108be565b9050919050565b6108f9816108de565b82525050565b600081519050919050565b600082825260208201905092915050565b60005b8381101561093957808201518184015260208101905061091e565b60008484015250505050565b6000601f19601f8301169050919050565b6000610961826108ff565b61096b818561090a565b935061097b81856020860161091b565b61098481610945565b840191505092915050565b6109988161085b565b82525050565b60006060820190506109b360008301866108f0565b81810360208301526109c58185610956565b90506109d4604083018461098f565b949350505050565b600080fd5b600080fd5b600080fd5b60008083601f840112610a0157610a006109dc565b5b8235905067ffffffffffffffff811115610a1e57610a1d6109e1565b5b602083019150836001820283011115610a3a57610a396109e6565b5b9250929050565b60008060208385031215610a5857610a57610851565b5b600083013567ffffffffffffffff811115610a7657610a75610856565b5b610a82858286016109eb565b92509250509250929050565b6000602082019050610aa3600083018461098f565b92915050565b60008060408385031215610ac057610abf610851565b5b6000610ace8582860161087c565b9250506020610adf8582860161087c565b9150509250929050565b60008060008060608587031215610b0357610b02610851565b5b6000610b118782880161087c565b9450506020610b228782880161087c565b935050604085013567ffffffffffffffff811115610b4357610b42610856565b5b610b4f878288016109eb565b925092505092959194509250565b6000602082019050610b7260008301846108f0565b92915050565b600080600060408486031215610b9157610b90610851565b5b6000610b9f8682870161087c565b935050602084013567ffffffffffffffff811115610bc057610bbf610856565b5b610bcc868287016109eb565b92509250509250925092565b7f4e487b7100000000000000000000000000000000000000000000000000000000600052602260045260246000fd5b60006002820490506001821680610c1f57607f821691505b602082108103610c3257610c31610bd8565b5b50919050565b7f4e487b7100000000000000000000000000000000000000000000000000000000600052601160045260246000fd5b6000610c728261085b565b9150610c7d8361085b565b9250828201905080821115610c9557610c94610c38565b5b92915050565b7f4e487b7100000000000000000000000000000000000000000000000000000000600052604160045260246000fd5b60008190508160005260206000209050919050565b60006020601f8301049050919050565b600082821b905092915050565b600060088302610d2c7fffffffffffffffffffffffffffffffffffffffffffffffffffffffffffffffff82610cef565b610d368683610cef565b95508019841693508086168417925050509392505050565b6000819050919050565b6000610d73610d6e610d698461085b565b610d4e565b61085b565b9050919050565b6000819050919050565b610d8d83610d58565b610da1610d9982610d7a565b848454610cfc565b825550505050565b600090565b610db6610da9565b610dc1818484610d84565b505050565b5b81811015610de557610dda600082610dae565b600181019050610dc7565b5050565b601f821115610e2a57610dfb81610cca565b610e0484610cdf565b81016020851015610e13578190505b610e27610e1f85610cdf565b830182610dc6565b50505b505050565b600082821c905092915050565b6000610e4d60001984600802610e2f565b1980831691505092915050565b6000610e668383610e3c565b9150826002028217905092915050565b610e7f826108ff565b67ffffffffffffffff811115610e9857610e97610c9b565b5b610ea28254610c07565b610ead828285610de9565b600060209050601f831160018114610ee05760008415610ece578287015190505b610ed88582610e5a565b865550610f40565b601f198416610eee86610cca565b60005b82811015610f1657848901518255600182019150602085019450602081019050610ef1565b86831015610f335784890151610f2f601f891682610e3c565b8355505b6001600288020188555050505b505050505050565b82818337600083830152505050565b6000610f63838561090a565b9350610f70838584610f48565b610f7983610945565b840190509392505050565b60006020820190508181036000830152610f9f818486610f57565b90509392505050565b7f6e6f742063726561746f72000000000000000000000000000000000000000000600082015250565b6000610fde600b8361090a565b9150610fe982610fa8565b602082019050919050565b6000602082019050818103600083015261100d81610fd1565b9050919050565b7f6e6f2066756e6473000000000000000000000000000000000000000000000000600082015250565b600061104a60088361090a565b915061105582611014565b602082019050919050565b600060208201905081810360008301526110798161103d565b9050919050565b7f6f6e6c79206f776e657200000000000000000000000000000000000000000000600082015250565b60006110b6600a8361090a565b91506110c182611080565b602082019050919050565b600060208201905081810360008301526110e5816110a9565b9050919050565b7f696e76616c69642070726f6a6563740000000000000000000000000000000000600082015250565b6000611122600f8361090a565b915061112d826110ec565b602082019050919050565b6000602082019050818103600083015261115181611115565b9050919050565b7f7a65726f20616d6f756e74000000000000000000000000000000000000000000600082015250565b600061118e600b8361090a565b915061119982611158565b602082019050919050565b600060208201905081810360008301526111bd81611181565b9050919050565b60006040820190506111d9600083018661098f565b81810360208301526111ec818486610f57565b905094935050505056fea2646970667358221220f147487116e6c7c7fdc3e62083cf86df7ed9c6a6f9b88e079e2e58e7698f2ed764736f6c63430008110033",
  "linkReferences": {},
  "deployedLinkReferences": {}
}