{
  "_format": "hh-sol-artifact-1",
  "contractName": "DonationVault",
  "sourceName": "contracts/DonationVault.sol",
  "abi": [
    {
      "anonymous": false,
      "inputs": [
        {
          "indexed": true,
          "internalType": "uint256",
          "name": "projectId",
          "type": "uint256"
        },
        {
          "indexed": true,
          "internalType": "address",
          "name": "donor",
          "type": "address"
        },
        {
          "indexed": false,
          "internalType": "uint256",
          "name": "amount",
          "type": "uint256"
        }
      ],
      "name": "Donated",
      "type": "event"
    },
    {
      "anonymous": false,
      "inputs": [
        {
          "indexed": true,
          "internalType": "uint256",
          "name": "projectId",
          "type": "uint256"
        },
        {
          "indexed": true,
          "internalType": "address",
          "name": "owner",
          "type": "address"
        }
      ],
      "name": "ProjectOwnerSet",
      "type": "event"
    },
    {
      "anonymous": false,
      "inputs": [
        {
          "indexed": true,
          "internalType": "uint256",
          "name": "projectId",
          "type": "uint256"
        },
        {
          "indexed": true,
          "internalType": "address",
          "name": "to",
          "type": "address"
        },
        {
          "indexed": false,
          "internalType": "uint256",
          "name": "amount",
          "type": "uint256"
        }
      ],
      "name": "Withdrawn",
      "type": "event"
    },
    {
      "inputs": [
        {
          "internalType": "uint256",
          "name": "projectId",
          "type": "uint256"
        }
      ],
      "name": "donate",
      "outputs": [],
      "stateMutability": "payable",
      "type": "function"
    },
    {
      "inputs": [
        {
          "internalType": "uint256",
          "name": "",
          "type": "uint256"
        }
      ],
      "name": "projectBalances",
      "outputs": [
        {
          "internalType": "uint256",
          "name": "",
          "type": "uint256"
        }
      ],
      "stateMutability": "view",
      "type": "function"
    },
    {
      "inputs": [
        {
          "internalType": "uint256",
          "name": "",
          "type": "uint256"
        }
      ],
      "name": "projectOwners",
      "outputs": [
        {
          "internalType": "address",
          "name": "",
          "type": "address"
        }
      ],
      "stateMutability": "view",
      "type": "function"
    },
    {
      "inputs": [
        {
          "internalType": "uint256",
          "name": "projectId",
          "type": "uint256"
        },
        {
          "internalType": "address",
          "name": "owner",
          "type": "address"
        }
      ],
      "name": "setProjectOwner",
      "outputs": [],
      "stateMutability": "nonpayable",
      "type": "function"
    },
    {
      "inputs": [
        {
          "internalType": "uint256",
          "name": "projectId",
          "type": "uint256"
        },
        {
          "internalType": "address payable",
          "name": "to",
          "type": "address"
        },
        {
          "internalType": "uint256",
          "name": "amount",
          "type": "uint256"
        }
      ],
      "name": "withdraw",
      "outputs": [],
      "stateMutability": "nonpayable",
      "type": "function"
    },
    {
      "stateMutability": "payable",
      "type": "receive"
    }
  ],
  "bytecode": "0x608060405234801561001057600080fd5b50610a95806100206000396000f3fe60806040526004361061004e5760003560e01c806353339ba01461005a578063bdcba88114610097578063e63697c8146100c0578063ee207b95146100e9578063f14faf6f1461012657610055565b3661005557005b600080fd5b34801561006657600080fd5b50610081600480360381019061007c91906105eb565b610142565b60405161008e9190610659565b60405180910390f35b3480156100a357600080fd5b506100be60048036038101906100b991906106a0565b610175565b005b3480156100cc57600080fd5b506100e760048036038101906100e2919061071e565b610320565b005b3480156100f557600080fd5b50610110600480360381019061010b91906105eb565b6104da565b60405161011d9190610780565b60405180910390f35b610140600480360381019061013b91906105eb565b6104f2565b005b60016020528060005260406000206000915054906101000a900473ffffffffffffffffffffffffffffffffffffffff1681565b600073ffffffffffffffffffffffffffffffffffffffff166001600084815260200190815260200160002060009054906101000a900473ffffffffffffffffffffffffffffffffffffffff1673ffffffffffffffffffffffffffffffffffffffff1614610217576040517f08c379a000000000000000000000000000000000000000000000000000000000815260040161020e906107f8565b60405180910390fd5b600073ffffffffffffffffffffffffffffffffffffffff168173ffffffffffffffffffffffffffffffffffffffff1603610286576040517f08c379a000000000000000000000000000000000000000000000000000000000815260040161027d90610864565b60405180910390fd5b806001600084815260200190815260200160002060006101000a81548173ffffffffffffffffffffffffffffffffffffffff021916908373ffffffffffffffffffffffffffffffffffffffff1602179055508073ffffffffffffffffffffffffffffffffffffffff16827ffefa3fd3345a57254492a4feb5cc86c6b79ddd7157e80188066a6a99ef2c433060405160405180910390a35050565b6001600084815260200190815260200160002060009054906101000a900473ffffffffffffffffffffffffffffffffffffffff1673ffffffffffffffffffffffffffffffffffffffff163373ffffffffffffffffffffffffffffffffffffffff16146103c1576040517f08c379a00000000000000000000000000000000000000000000000000000000081526004016103b8906108d0565b60405180910390fd5b80600080858152602001908152602001600020541015610416576040517f08c379a000000000000000000000000000000000000000000000000000000000815260040161040d9061093c565b60405180910390fd5b806000808581526020019081526020016000206000828254610438919061098b565b925050819055508173ffffffffffffffffffffffffffffffffffffffff166108fc829081150290604051600060405180830381858888f19350505050158015610485573d6000803e3d6000fd5b508173ffffffffffffffffffffffffffffffffffffffff16837fcf7d23a3cbe4e8b36ff82fd1b05b1b17373dc7804b4ebbd6e2356716ef202372836040516104cd9190610780565b60405180910390a3505050565b60006020528060005260406000206000915090505481565b60003411610535576040517f08c379a000000000000000000000000000000000000000000000000000000000815260040161052c90610a0b565b60405180910390fd5b3460008083815260200190815260200160002060008282546105579190610a2b565b925050819055503373ffffffffffffffffffffffffffffffffffffffff16817f1b606d34afacd55873aba0fd274841a10c63e18455f2dffebad2fc60a36b2c83346040516105a59190610780565b60405180910390a350565b600080fd5b6000819050919050565b6105c8816105b5565b81146105d357600080fd5b50565b6000813590506105e5816105bf565b92915050565b600060208284031215610601576106006105b0565b5b600061060f848285016105d6565b91505092915050565b600073ffffffffffffffffffffffffffffffffffffffff82169050919050565b600061064382610618565b9050919050565b61065381610638565b82525050565b600060208201905061066e600083018461064a565b92915050565b61067d81610638565b811461068857600080fd5b50565b60008135905061069a81610674565b92915050565b600080604083850312156106b7576106b66105b0565b5b60006106c5858286016105d6565b92505060206106d68582860161068b565b9150509250929050565b60006106eb82610618565b9050919050565b6106fb816106e0565b811461070657600080fd5b50565b600081359050610718816106f2565b92915050565b600080600060608486031215610737576107366105b0565b5b6000610745868287016105d6565b935050602061075686828701610709565b9250506040610767868287016105d6565b9150509250925092565b61077a816105b5565b82525050565b60006020820190506107956000830184610771565b92915050565b600082825260208201905092915050565b7f4f776e657220616c726561647920736574000000000000000000000000000000600082015250565b60006107e260118361079b565b91506107ed826107ac565b602082019050919050565b60006020820190508181036000830152610811816107d5565b9050919050565b7f496e76616c6964206f776e657220616464726573730000000000000000000000600082015250565b600061084e60158361079b565b915061085982610818565b602082019050919050565b6000602082019050818103600083015261087d81610841565b9050919050565b7f4f6e6c792070726f6a656374206f776e65722063616e20776974686472617700600082015250565b60006108ba601f8361079b565b91506108c582610884565b602082019050919050565b600060208201905081810360008301526108e9816108ad565b9050919050565b7f496e73756666696369656e742062616c616e6365000000000000000000000000600082015250565b600061092660148361079b565b9150610931826108f0565b602082019050919050565b6000602082019050818103600083015261095581610919565b9050919050565b7f4e487b7100000000000000000000000000000000000000000000000000000000600052601160045260246000fd5b6000610996826105b5565b91506109a1836105b5565b92508282039050818111156109b9576109b861095c565b5b92915050565b7f4d7573742073656e642045544800000000000000000000000000000000000000600082015250565b60006109f5600d8361079b565b9150610a00826109bf565b602082019050919050565b60006020820190508181036000830152610a24816109e8565b9050919050565b6000610a36826105b5565b9150610a41836105b5565b9250828201905080821115610a5957610a5861095c565b5b9291505056fea2646970667358221220d3cc3715d7bdae65e0f4b799ab7978d1a4741aeb82974f406930e1e5af9886cf64736f6c63430008130033",
  "linkReferences": {},
  "deployedLinkReferences": {}
}