{
  "_format": "hh-sol-artifact-1",
  "contractName": "GrantRegistry",
  "sourceName": "contracts/GrantRegistry.sol",
  "abi": [
    {
      "anonymous": false,
      "inputs": [
        {
          "indexed": true,
          "internalType": "uint256",
          "name": "projectId",
          "type": "uint256"
        },
        {
          "indexed": false,
          "internalType": "address",
          "name": "owner",
          "type": "address"
        },
        {
          "indexed": false,
          "internalType": "string",
          "name": "metadataURI",
          "type": "string"
        }
      ],
      "name": "ProjectRegistered",
      "type": "event"
    },
    {
      "inputs": [
        {
          "internalType": "uint256",
          "name": "id",
          "type": "uint256"
        }
      ],
      "name": "getProject",
      "outputs": [
        {
          "internalType": "address",
          "name": "",
          "type": "address"
        },
        {
          "internalType": "string",
          "name": "",
          "type": "string"
        }
      ],
      "stateMutability": "view",
      "type": "function"
    },
    {
      "inputs": [],
      "name": "nextId",
      "outputs": [
        {
          "internalType": "uint256",
          "name": "",
          "type": "uint256"
        }
      ],
      "stateMutability": "view",
      "type": "function"
    },
    {
      "inputs": [
        {
          "internalType": "uint256",
          "name": "",
          "type": "uint256"
        }
      ],
      "name": "projects",
      "outputs": [
        {
          "internalType": "address",
          "name": "owner",
          "type": "address"
        },
        {
          "internalType": "string",
          "name": "metadataURI",
          "type": "string"
        },
        {
          "internalType": "bool",
          "name": "exists",
          "type": "bool"
        }
      ],
      "stateMutability": "view",
      "type": "function"
    },
    {
      "inputs": [
        {
          "internalType": "string",
          "name": "metadataURI",
          "type": "string"
        }
      ],
      "name": "registerProject",
      "outputs": [
        {
          "internalType": "uint256",
          "name": "",
          "type": "uint256"
        }
      ],
      "stateMutability": "nonpayable",
      "type": "function"
    }
  ],
  "bytecode": "0x608060405234801561001057600080fd5b50610bc5806100206000396000f3fe608060405234801561001057600080fd5b506004361061004c5760003560e01c8063107046bd1461005157806361b8ce8c1461008357806372212ec7146100a1578063f0f3f2c8146100d1575b600080fd5b61006b600480360381019061006691906104ce565b610102565b60405161007a939291906105e7565b60405180910390f35b61008b6101e1565b6040516100989190610634565b60405180910390f35b6100bb60048036038101906100b691906106b4565b6101e7565b6040516100c89190610634565b60405180910390f35b6100eb60048036038101906100e691906104ce565b610353565b6040516100f9929190610701565b60405180910390f35b60006020528060005260406000206000915090508060000160009054906101000a900473ffffffffffffffffffffffffffffffffffffffff169080600101805461014b90610760565b80601f016020809104026020016040519081016040528092919081815260200182805461017790610760565b80156101c45780601f10610199576101008083540402835291602001916101c4565b820191906000526020600020905b8154815290600101906020018083116101a757829003601f168201915b5050505050908060020160009054906101000a900460ff16905083565b60015481565b600080600160008154809291906101fd906107c0565b91905055905060405180606001604052803373ffffffffffffffffffffffffffffffffffffffff16815260200185858080601f016020809104026020016040519081016040528093929190818152602001838380828437600081840152601f19601f8201169050808301925050505050505081526020016001151581525060008083815260200190815260200160002060008201518160000160006101000a81548173ffffffffffffffffffffffffffffffffffffffff021916908373ffffffffffffffffffffffffffffffffffffffff16021790555060208201518160010190816102e991906109e3565b5060408201518160020160006101000a81548160ff021916908315150217905550905050807f1fb4423aed62bba3e66f7c81a4af273642c7e8c57d7b111ae2b1aca9887869ba33868660405161034193929190610af1565b60405180910390a28091505092915050565b6000606060008084815260200190815260200160002060020160009054906101000a900460ff166103b9576040517f08c379a00000000000000000000000000000000000000000000000000000000081526004016103b090610b6f565b60405180910390fd5b600080600085815260200190815260200160002090508060000160009054906101000a900473ffffffffffffffffffffffffffffffffffffffff168160010180805461040490610760565b80601f016020809104026020016040519081016040528092919081815260200182805461043090610760565b801561047d5780601f106104525761010080835404028352916020019161047d565b820191906000526020600020905b81548152906001019060200180831161046057829003601f168201915b505050505090509250925050915091565b600080fd5b600080fd5b6000819050919050565b6104ab81610498565b81146104b657600080fd5b50565b6000813590506104c8816104a2565b92915050565b6000602082840312156104e4576104e361048e565b5b60006104f2848285016104b9565b91505092915050565b600073ffffffffffffffffffffffffffffffffffffffff82169050919050565b6000610526826104fb565b9050919050565b6105368161051b565b82525050565b600081519050919050565b600082825260208201905092915050565b60005b8381101561057657808201518184015260208101905061055b565b60008484015250505050565b6000601f19601f8301169050919050565b600061059e8261053c565b6105a88185610547565b93506105b8818560208601610558565b6105c181610582565b840191505092915050565b60008115159050919050565b6105e1816105cc565b82525050565b60006060820190506105fc600083018661052d565b818103602083015261060e8185610593565b905061061d60408301846105d8565b949350505050565b61062e81610498565b82525050565b60006020820190506106496000830184610625565b92915050565b600080fd5b600080fd5b600080fd5b60008083601f8401126106745761067361064f565b5b8235905067ffffffffffffffff81111561069157610690610654565b5b6020830191508360018202830111156106ad576106ac610659565b5b9250929050565b600080602083850312156106cb576106ca61048e565b5b600083013567ffffffffffffffff8111156106e9576106e8610493565b5b6106f58582860161065e565b92509250509250929050565b6000604082019050610716600083018561052d565b81810360208301526107288184610593565b90509392505050565b7f4e487b7100000000000000000000000000000000000000000000000000000000600052602260045260246000fd5b6000600282049050600182168061077857607f821691505b60208210810361078b5761078a610731565b5b50919050565b7f4e487b7100000000000000000000000000000000000000000000000000000000600052601160045260246000fd5b60006107cb82610498565b91507fffffffffffffffffffffffffffffffffffffffffffffffffffffffffffffffff82036107fd576107fc610791565b5b600182019050919050565b7f4e487b7100000000000000000000000000000000000000000000000000000000600052604160045260246000fd5b60008190508160005260206000209050919050565b60006020601f8301049050919050565b600082821b905092915050565b6000600883026108997fffffffffffffffffffffffffffffffffffffffffffffffffffffffffffffffff8261085c565b6108a3868361085c565b95508019841693508086168417925050509392505050565b6000819050919050565b60006108e06108db6108d684610498565b6108bb565b610498565b9050919050565b6000819050919050565b6108fa836108c5565b61090e610906826108e7565b848454610869565b825550505050565b600090565b610923610916565b61092e8184846108f1565b505050565b5b818110156109525761094760008261091b565b600181019050610934565b5050565b601f8211156109975761096881610837565b6109718461084c565b81016020851015610980578190505b61099461098c8561084c565b830182610933565b50505b505050565b600082821c905092915050565b60006109ba6000198460080261099c565b1980831691505092915050565b60006109d383836109a9565b9150826002028217905092915050565b6109ec8261053c565b67ffffffffffffffff811115610a0557610a04610808565b5b610a0f8254610760565b610a1a828285610956565b600060209050601f831160018114610a4d5760008415610a3b578287015190505b610a4585826109c7565b865550610aad565b601f198416610a5b86610837565b60005b82811015610a8357848901518255600182019150602085019450602081019050610a5e565b86831015610aa05784890151610a9c601f8916826109a9565b8355505b6001600288020188555050505b505050505050565b82818337600083830152505050565b6000610ad08385610547565b9350610add838584610ab5565b610ae683610582565b840190509392505050565b6000604082019050610b06600083018661052d565b8181036020830152610b19818486610ac4565b9050949350505050565b7f50726f6a656374206e6f7420666f756e64000000000000000000000000000000600082015250565b6000610b59601183610547565b9150610b6482610b23565b602082019050919050565b60006020820190508181036000830152610b8881610b4c565b905091905056fea264697066735822122090ae477b5b5f18a116e21eb6823ff968c0766259921de9a8db6d7784630cc44a64736f6c63430008130033",
  "linkReferences": {},
  "deployedLinkReferences": {}
}