{
  "_format": "hh-sol-artifact-1",
  "contractName": "MatchingPool",
  "sourceName": "contracts/MatchingPool.sol",
  "abi": [
    {
      "inputs": [],
      "stateMutability": "nonpayable",
      "type": "constructor"
    },
    {
      "anonymous": false,
      "inputs": [
        {
          "indexed": true,
          "internalType": "uint256",
          "name": "roundId",
          "type": "uint256"
        },
        {
          "indexed": true,
          "internalType": "uint256",
          "name": "projectId",
          "type": "uint256"
        },
        {
          "indexed": true,
          "internalType": "address",
          "name": "donor",
          "type": "address"
        },
        {
          "indexed": false,
          "internalType": "uint256",
          "name": "amount",
          "type": "uint256"
        }
      ],
      "name": "ContributionRecorded",
      "type": "event"
    },
    {
      "anonymous": false,
      "inputs": [
        {
          "indexed": true,
          "internalType": "uint256",
          "name": "poolId",
          "type": "uint256"
        },
        {
          "indexed": true,
          "internalType": "address",
          "name": "from",
          "type": "address"
        },
        {
          "indexed": false,
          "internalType": "uint256",
          "name": "amount",
          "type": "uint256"
        }
      ],
      "name": "Funded",
      "type": "event"
    },
    {
      "anonymous": false,
      "inputs": [
        {
          "indexed": true,
          "internalType": "uint256",
          "name": "roundId",
          "type": "uint256"
        },
        {
          "indexed": true,
          "internalType": "uint256",
          "name": "projectId",
          "type": "uint256"
        },
        {
          "indexed": false,
          "internalType": "uint256",
          "name": "matchAmount",
          "type": "uint256"
        }
      ],
      "name": "MatchingDistributed",
      "type": "event"
    },
    {
      "anonymous": false,
      "inputs": [
        {
          "indexed": true,
          "internalType": "address",
          "name": "previousOwner",
          "type": "address"
        },
        {
          "indexed": true,
          "internalType": "address",
          "name": "newOwner",
          "type": "address"
        }
      ],
      "name": "OwnershipTransferred",
      "type": "event"
    },
    {
      "inputs": [
        {
          "internalType": "uint256",
          "name": "roundId",
          "type": "uint256"
        },
        {
          "internalType": "uint256",
          "name": "projectId",
          "type": "uint256"
        }
      ],
      "name": "calculateMatching",
      "outputs": [
        {
          "internalType": "uint256",
          "name": "",
          "type": "uint256"
        }
      ],
      "stateMutability": "view",
      "type": "function"
    },
    {
      "inputs": [
        {
          "internalType": "uint256",
          "name": "",
          "type": "uint256"
        },
        {
          "internalType": "uint256",
          "name": "",
          "type": "uint256"
        },
        {
          "internalType": "address",
          "name": "",
          "type": "address"
        }
      ],
      "name": "contributions",
      "outputs": [
        {
          "internalType": "uint256",
          "name": "",
          "type": "uint256"
        }
      ],
      "stateMutability": "view",
      "type": "function"
    },
    {
      "inputs": [
        {
          "internalType": "uint256",
          "name": "roundId",
          "type": "uint256"
        },
        {
          "internalType": "uint256",
          "name": "projectId",
          "type": "uint256"
        },
        {
          "internalType": "address payable",
          "name": "recipient",
          "type": "address"
        }
      ],
      "name": "distributeMatching",
      "outputs": [],
      "stateMutability": "nonpayable",
      "type": "function"
    },
    {
      "inputs": [
        {
          "internalType": "uint256",
          "name": "poolId",
          "type": "uint256"
        }
      ],
      "name": "fundPool",
      "outputs": [],
      "stateMutability": "payable",
      "type": "function"
    },
    {
      "inputs": [
        {
          "internalType": "uint256",
          "name": "roundId",
          "type": "uint256"
        },
        {
          "internalType": "uint256",
          "name": "projectId",
          "type": "uint256"
        }
      ],
      "name": "getDonorCount",
      "outputs": [
        {
          "internalType": "uint256",
          "name": "",
          "type": "uint256"
        }
      ],
      "stateMutability": "view",
      "type": "function"
    },
    {
      "inputs": [
        {
          "internalType": "uint256",
          "name": "roundId",
          "type": "uint256"
        },
        {
          "internalType": "uint256",
          "name": "projectId",
          "type": "uint256"
        }
      ],
      "name": "getDonors",
      "outputs": [
        {
          "internalType": "address[]",
          "name": "",
          "type": "address[]"
        }
      ],
      "stateMutability": "view",
      "type": "function"
    },
    {
      "inputs": [],
      "name": "owner",
      "outputs": [
        {
          "internalType": "address",
          "name": "",
          "type": "address"
        }
      ],
      "stateMutability": "view",
      "type": "function"
    },
    {
      "inputs": [
        {
          "internalType": "uint256",
          "name": "",
          "type": "uint256"
        }
      ],
      "name": "poolBalances",
      "outputs": [
        {
          "internalType": "uint256",
          "name": "",
          "type": "uint256"
        }
      ],
      "stateMutability": "view",
      "type": "function"
    },
    {
      "inputs": [
        {
          "internalType": "uint256",
          "name": "roundId",
          "type": "uint256"
        },
        {
          "internalType": "uint256",
          "name": "projectId",
          "type": "uint256"
        },
        {
          "internalType": "address",
          "name": "donor",
          "type": "address"
        },
        {
          "internalType": "uint256",
          "name": "amount",
          "type": "uint256"
        }
      ],
      "name": "recordContribution",
      "outputs": [],
      "stateMutability": "nonpayable",
      "type": "function"
    },
    {
      "inputs": [],
      "name": "renounceOwnership",
      "outputs": [],
      "stateMutability": "nonpayable",
      "type": "function"
    },
    {
      "inputs": [
        {
          "internalType": "address",
          "name": "newOwner",
          "type": "address"
        }
      ],
      "name": "transferOwnership",
      "outputs": [],
      "stateMutability": "nonpayable",
      "type": "function"
    },
    {
      "stateMutability": "payable",
      "type": "receive"
    }
  ],
  "bytecode": "0x608060405234801561001057600080fd5b5061002d61002261003260201b60201c565b61003a60201b60201c565b6100fe565b600033905090565b60008060009054906101000a900473ffffffffffffffffffffffffffffffffffffffff169050816000806101000a81548173ffffffffffffffffffffffffffffffffffffffff021916908373ffffffffffffffffffffffffffffffffffffffff1602179055508173ffffffffffffffffffffffffffffffffffffffff168173ffffffffffffffffffffffffffffffffffffffff167f8be0079c531659141344cd1fd0a4f28419497f9722a3daafe3b4186f6b6457e060405160405180910390a35050565b6116c68061010d6000396000f3fe6080604052600436106100a05760003560e01c80638da5cb5b116100645780638da5cb5b14610209578063aa31b99714610234578063be05454314610271578063da3a5f72146102ae578063db051e04146102ca578063f2fde38b1461030757610121565b806312040146146101265780631f131ea31461014f5780635fae7bbe14610178578063715018a6146101b55780638acc73c9146101cc57610121565b3661012157346001600080815260200190815260200160002060008282546100c89190610df6565b925050819055503373ffffffffffffffffffffffffffffffffffffffff1660007f38c48552690c96ec2872092ac1db6c19fb59f5a8c5b49bbf41ed4886d0ca6926346040516101179190610e39565b60405180910390a3005b600080fd5b34801561013257600080fd5b5061014d60048036038101906101489190610ee3565b610330565b005b34801561015b57600080fd5b5061017660048036038101906101719190610f88565b6105b4565b005b34801561018457600080fd5b5061019f600480360381019061019a9190610fdb565b610779565b6040516101ac91906110d9565b60405180910390f35b3480156101c157600080fd5b506101ca61082c565b005b3480156101d857600080fd5b506101f360048036038101906101ee9190610fdb565b610840565b6040516102009190610e39565b60405180910390f35b34801561021557600080fd5b5061021e610a17565b60405161022b919061110a565b60405180910390f35b34801561024057600080fd5b5061025b60048036038101906102569190610fdb565b610a40565b6040516102689190610e39565b60405180910390f35b34801561027d57600080fd5b5061029860048036038101906102939190611125565b610a72565b6040516102a59190610e39565b60405180910390f35b6102c860048036038101906102c39190611125565b610a8a565b005b3480156102d657600080fd5b506102f160048036038101906102ec9190611152565b610b49565b6040516102fe9190610e39565b60405180910390f35b34801561031357600080fd5b5061032e600480360381019061032991906111a5565b610b7b565b005b60008111610373576040517f08c379a000000000000000000000000000000000000000000000000000000000815260040161036a9061122f565b60405180910390fd5b60046000858152602001908152602001600020600084815260200190815260200160002060008373ffffffffffffffffffffffffffffffffffffffff1673ffffffffffffffffffffffffffffffffffffffff16815260200190815260200160002060009054906101000a900460ff166104e657600360008581526020019081526020016000206000848152602001908152602001600020829080600181540180825580915050600190039060005260206000200160009091909190916101000a81548173ffffffffffffffffffffffffffffffffffffffff021916908373ffffffffffffffffffffffffffffffffffffffff160217905550600160046000868152602001908152602001600020600085815260200190815260200160002060008473ffffffffffffffffffffffffffffffffffffffff1673ffffffffffffffffffffffffffffffffffffffff16815260200190815260200160002060006101000a81548160ff0219169083151502179055505b8060026000868152602001908152602001600020600085815260200190815260200160002060008473ffffffffffffffffffffffffffffffffffffffff1673ffffffffffffffffffffffffffffffffffffffff16815260200190815260200160002060008282546105579190610df6565b925050819055508173ffffffffffffffffffffffffffffffffffffffff1683857fe344fc1a7551a86811888e804fec62ba0efaec1a0b4b3e5bf491ba602ed9fdbb846040516105a69190610e39565b60405180910390a450505050565b6105bc610bfe565b60006105c88484610840565b90506000811161060d576040517f08c379a00000000000000000000000000000000000000000000000000000000081526004016106049061129b565b60405180910390fd5b8060016000868152602001908152602001600020541015610663576040517f08c379a000000000000000000000000000000000000000000000000000000000815260040161065a90611307565b60405180910390fd5b806001600086815260200190815260200160002060008282546106869190611327565b9250508190555060008273ffffffffffffffffffffffffffffffffffffffff16826040516106b39061138c565b60006040518083038185875af1925050503d80600081146106f0576040519150601f19603f3d011682016040523d82523d6000602084013e6106f5565b606091505b5050905080610739576040517f08c379a0000000000000000000000000000000000000000000000000000000008152600401610730906113ed565b60405180910390fd5b83857f2eb39bf03704f24164325fd541a916977b27212321d2e79d93a4da0cd77832058460405161076a9190610e39565b60405180910390a35050505050565b606060036000848152602001908152602001600020600083815260200190815260200160002080548060200260200160405190810160405280929190818152602001828054801561081f57602002820191906000526020600020905b8160009054906101000a900473ffffffffffffffffffffffffffffffffffffffff1673ffffffffffffffffffffffffffffffffffffffff16815260200190600101908083116107d5575b5050505050905092915050565b610834610bfe565b61083e6000610c7c565b565b6000806003600085815260200190815260200160002060008481526020019081526020016000208054806020026020016040519081016040528092919081815260200182805480156108e757602002820191906000526020600020905b8160009054906101000a900473ffffffffffffffffffffffffffffffffffffffff1673ffffffffffffffffffffffffffffffffffffffff168152602001906001019080831161089d575b505050505090506000815103610901576000915050610a11565b60008060005b83518110156109d85760008482815181106109255761092461140d565b5b602002602001015190506000600260008a8152602001908152602001600020600089815260200190815260200160002060008373ffffffffffffffffffffffffffffffffffffffff1673ffffffffffffffffffffffffffffffffffffffff16815260200190815260200160002054905060008111156109c3576109a781610d40565b856109b29190610df6565b945080846109c09190610df6565b93505b505080806109d09061143c565b915050610907565b50600082836109e79190611484565b905081811115610a085781816109fd9190611327565b945050505050610a11565b60009450505050505b92915050565b60008060009054906101000a900473ffffffffffffffffffffffffffffffffffffffff16905090565b600060036000848152602001908152602001600020600083815260200190815260200160002080549050905092915050565b60016020528060005260406000206000915090505481565b60003411610acd576040517f08c379a0000000000000000000000000000000000000000000000000000000008152600401610ac490611512565b60405180910390fd5b34600160008381526020019081526020016000206000828254610af09190610df6565b925050819055503373ffffffffffffffffffffffffffffffffffffffff16817f38c48552690c96ec2872092ac1db6c19fb59f5a8c5b49bbf41ed4886d0ca692634604051610b3e9190610e39565b60405180910390a350565b600260205282600052604060002060205281600052604060002060205280600052604060002060009250925050505481565b610b83610bfe565b600073ffffffffffffffffffffffffffffffffffffffff168173ffffffffffffffffffffffffffffffffffffffff1603610bf2576040517f08c379a0000000000000000000000000000000000000000000000000000000008152600401610be9906115a4565b60405180910390fd5b610bfb81610c7c565b50565b610c06610db5565b73ffffffffffffffffffffffffffffffffffffffff16610c24610a17565b73ffffffffffffffffffffffffffffffffffffffff1614610c7a576040517f08c379a0000000000000000000000000000000000000000000000000000000008152600401610c7190611610565b60405180910390fd5b565b60008060009054906101000a900473ffffffffffffffffffffffffffffffffffffffff169050816000806101000a81548173ffffffffffffffffffffffffffffffffffffffff021916908373ffffffffffffffffffffffffffffffffffffffff1602179055508173ffffffffffffffffffffffffffffffffffffffff168173ffffffffffffffffffffffffffffffffffffffff167f8be0079c531659141344cd1fd0a4f28419497f9722a3daafe3b4186f6b6457e060405160405180910390a35050565b6000808203610d525760009050610db0565b60006002600184610d639190610df6565b610d6d919061165f565b905060008390505b80821015610daa578190506002828386610d8f919061165f565b610d999190610df6565b610da3919061165f565b9150610d75565b80925050505b919050565b600033905090565b6000819050919050565b7f4e487b7100000000000000000000000000000000000000000000000000000000600052601160045260246000fd5b6000610e0182610dbd565b9150610e0c83610dbd565b9250828201905080821115610e2457610e23610dc7565b5b92915050565b610e3381610dbd565b82525050565b6000602082019050610e4e6000830184610e2a565b92915050565b600080fd5b610e6281610dbd565b8114610e6d57600080fd5b50565b600081359050610e7f81610e59565b92915050565b600073ffffffffffffffffffffffffffffffffffffffff82169050919050565b6000610eb082610e85565b9050919050565b610ec081610ea5565b8114610ecb57600080fd5b50565b600081359050610edd81610eb7565b92915050565b60008060008060808587031215610efd57610efc610e54565b5b6000610f0b87828801610e70565b9450506020610f1c87828801610e70565b9350506040610f2d87828801610ece565b9250506060610f3e87828801610e70565b91505092959194509250565b6000610f5582610e85565b9050919050565b610f6581610f4a565b8114610f7057600080fd5b50565b600081359050610f8281610f5c565b92915050565b600080600060608486031215610fa157610fa0610e54565b5b6000610faf86828701610e70565b9350506020610fc086828701610e70565b9250506040610fd186828701610f73565b9150509250925092565b60008060408385031215610ff257610ff1610e54565b5b600061100085828601610e70565b925050602061101185828601610e70565b9150509250929050565b600081519050919050565b600082825260208201905092915050565b6000819050602082019050919050565b61105081610ea5565b82525050565b60006110628383611047565b60208301905092915050565b6000602082019050919050565b60006110868261101b565b6110908185611026565b935061109b83611037565b8060005b838110156110cc5781516110b38882611056565b97506110be8361106e565b92505060018101905061109f565b5085935050505092915050565b600060208201905081810360008301526110f3818461107b565b905092915050565b61110481610ea5565b82525050565b600060208201905061111f60008301846110fb565b92915050565b60006020828403121561113b5761113a610e54565b5b600061114984828501610e70565b91505092915050565b60008060006060848603121561116b5761116a610e54565b5b600061117986828701610e70565b935050602061118a86828701610e70565b925050604061119b86828701610ece565b9150509250925092565b6000602082840312156111bb576111ba610e54565b5b60006111c984828501610ece565b91505092915050565b600082825260208201905092915050565b7f416d6f756e74206d75737420626520706f736974697665000000000000000000600082015250565b60006112196017836111d2565b9150611224826111e3565b602082019050919050565b600060208201905081810360008301526112488161120c565b9050919050565b7f4e6f206d61746368696e672066756e64732063616c63756c6174656400000000600082015250565b6000611285601c836111d2565b91506112908261124f565b602082019050919050565b600060208201905081810360008301526112b481611278565b9050919050565b7f496e73756666696369656e7420706f6f6c2062616c616e636500000000000000600082015250565b60006112f16019836111d2565b91506112fc826112bb565b602082019050919050565b60006020820190508181036000830152611320816112e4565b9050919050565b600061133282610dbd565b915061133d83610dbd565b925082820390508181111561135557611354610dc7565b5b92915050565b600081905092915050565b50565b600061137660008361135b565b915061138182611366565b600082019050919050565b600061139782611369565b9150819050919050565b7f5472616e73666572206661696c65640000000000000000000000000000000000600082015250565b60006113d7600f836111d2565b91506113e2826113a1565b602082019050919050565b60006020820190508181036000830152611406816113ca565b9050919050565b7f4e487b7100000000000000000000000000000000000000000000000000000000600052603260045260246000fd5b600061144782610dbd565b91507fffffffffffffffffffffffffffffffffffffffffffffffffffffffffffffffff820361147957611478610dc7565b5b600182019050919050565b600061148f82610dbd565b915061149a83610dbd565b92508282026114a881610dbd565b915082820484148315176114bf576114be610dc7565b5b5092915050565b7f4d7573742073656e642045544800000000000000000000000000000000000000600082015250565b60006114fc600d836111d2565b9150611507826114c6565b602082019050919050565b6000602082019050818103600083015261152b816114ef565b9050919050565b7f4f776e61626c653a206e6577206f776e657220697320746865207a65726f206160008201527f6464726573730000000000000000000000000000000000000000000000000000602082015250565b600061158e6026836111d2565b915061159982611532565b604082019050919050565b600060208201905081810360008301526115bd81611581565b9050919050565b7f4f776e61626c653a2063616c6c6572206973206e6f7420746865206f776e6572600082015250565b60006115fa6020836111d2565b9150611605826115c4565b602082019050919050565b60006020820190508181036000830152611629816115ed565b9050919050565b7f4e487b7100000000000000000000000000000000000000000000000000000000600052601260045260246000fd5b600061166a82610dbd565b915061167583610dbd565b92508261168557611684611630565b5b82820490509291505056fea264697066735822122064ba678754734816bd70ce0eb8da62f9bbbc7b173911e3797d6e213e71ec31f164736f6c63430008130033",
  "linkReferences": {},
  "deployedLinkReferences": {}
}